:020000040001F9
:200000003DB8F39600000000000200003462010000000000020001000000000000000000C6
:20002000FFFFFFFFFFFFFFFFFFFFFFFFFFFFFFFFFFFFFFFFFFFFFFFFFFFFFFFFFFFFFFFFE0
:20004000FFFFFFFFFFFFFFFFFFFFFFFFFFFFFFFFFFFFFFFFFFFFFFFFFFFFFFFFFFFFFFFFC0
:20006000FFFFFFFFFFFFFFFFFFFFFFFFFFFFFFFFFFFFFFFFFFFFFFFFFFFFFFFFFFFFFFFFA0
:20008000FFFFFFFFFFFFFFFFFFFFFFFFFFFFFFFFFFFFFFFFFFFFFFFFFFFFFFFFFFFFFFFF80
:2000A000FFFFFFFFFFFFFFFFFFFFFFFFFFFFFFFFFFFFFFFFFFFFFFFFFFFFFFFFFFFFFFFF60
:2000C000FFFFFFFFFFFFFFFFFFFFFFFFFFFFFFFFFFFFFFFFFFFFFFFFFFFFFFFFFFFFFFFF40
:2000E000FFFFFFFFFFFFFFFFFFFFFFFFFFFFFFFFFFFFFFFFFFFFFFFFFFFFFFFFFFFFFFFF20
:20010000FFFFFFFFFFFFFFFFFFFFFFFFFFFFFFFFFFFFFFFFFFFFFFFFFFFFFFFFFFFFFFFFFF
:20012000FFFFFFFFFFFFFFFFFFFFFFFFFFFFFFFFFFFFFFFFFFFFFFFFFFFFFFFFFFFFFFFFDF
:20014000FFFFFFFFFFFFFFFFFFFFFFFFFFFFFFFFFFFFFFFFFFFFFFFFFFFFFFFFFFFFFFFFBF
:20016000FFFFFFFFFFFFFFFFFFFFFFFFFFFFFFFFFFFFFFFFFFFFFFFFFFFFFFFFFFFFFFFF9F
:20018000FFFFFFFFFFFFFFFFFFFFFFFFFFFFFFFFFFFFFFFFFFFFFFFFFFFFFFFFFFFFFFFF7F
:2001A000FFFFFFFFFFFFFFFFFFFFFFFFFFFFFFFFFFFFFFFFFFFFFFFFFFFFFFFFFFFFFFFF5F
:2001C000FFFFFFFFFFFFFFFFFFFFFFFFFFFFFFFFFFFFFFFFFFFFFFFFFFFFFFFFFFFFFFFF3F
:2001E000FFFFFFFFFFFFFFFFFFFFFFFFFFFFFFFFFFFFFFFFFFFFFFFFFFFFFFFFFFFFFFFF1F
:2002000030D10120D9C801001DC70100D5C80100D5C80100D5C80100D5C80100D5C801001F
:20022000000000000000000000000000A19C0100D5C8010000000000B99C0100219D0100CD
:2002400095A50100F5A501006DA60100CDA6010095AB01001DAB010009AC01003DAC010096
:2002600095AB01001DAB010009AC01003DAC010015C30100B5C30100E5C40100B5C301005F
:20028000E5C4010095AB01001DAB010009AC01003DAC01008DAF010089B0010099B7010042
:2002A00071BB0100C1BB0100C7BB0100000000000000000000000000000000000000000011
:2002C00000000000000000000000000000000000000000000000000000000000000000001E
:2002E0000000000000000000000000000000000000000000000000000000000000000000FE
:200300000000000000000000000000000000000000000000000000000000000000000000DD
:200320000000000000000000000000000000000000000000000000000000000000000000BD
:2003400000000000000000000000000000000000000000000000000000000000000000009D
:2003600000000000000000000000000000000000000000000000000000000000000000007D
:2003800000000000000000000000000000000000000000000000000000000000000000005D
:2003A00000000000000000000000000000000000000000000000000000000000000000003D
:2003C0000348044B834202D0034B03B118477047980E0020980E002000000000064B0749A7
:2003E000C91A891048BF0131491003D0044B0BB101481847704700BF980E0020980E002067
:200400000000000010B5064C237843B9FFF7D8FF044B13B10448AFF300800123237010BD5C
:20042000B80E002000000000F056020008B5054B1BB105490548AFF30080BDE80840FFF715
:20044000CDBF00BF00000000BC0E0020F0560200052380F86830062380F8C830072380F8AC
:200460002831704770B500252026044632462946C0E90055C58680F82C5080F8345080F8FA
:20048000335085600C300FF0D9FEC4F82D50A4F831503246294604F13900BDE870400FF023
:2004A000CDBEFFFF08B59C21024B034A034809F0ADFA00BF50360200644B02005F36020025
:2004C00073B50D461646044608B9FFF7EBFF02FB01F00EF0E7FE00230246009331462346AB
:2004E00028460CF055FDA06402B070BD08B50A220023806C0CF0D2FD012008BD08B50122D4
:20050000806C0CF0F5FE431E5842584108BD07B5002301AA806C0CF085FE012003B05DF889
:2005200004FBFFFF024B586019700020704700BF800100200CB4F0B51D4F04463B780E46D7
:200540008342ADF2144D2DD903AD40F20242002128460FF073FE0DF22C43CDE90163154BC3
:200560004FF4806153F82430134A0093134B284653F824300FF098FD029B0446C0F580614C
:20058000DDF8282428180FF03BFE0444B4F5806F4FF00003A8BF4FF480642B557B680BB1F3
:2005A000284698470DF2144DBDE8F04002B0704780010020744B020084360200884B02005D
:2005C000034610B514460846C3E90A1206F051F92046BDE81040012106F00FB9806A92B2F4
:2005E00006F017B9806A92B206F023B9806A9BB206F02FB91FB501238DF807100DF10F027D
:200600000DF10701FFF7F2FF9DF80F0005B05DF804FB0021C06A06F0EAB80121C06A06F01B
:20062000E6B8F8B50546FFF7F4FF9F212846FFF7E1FFA5212846FFF7DDFFA52107462846B0
:20064000FFF7D8FFA52104462846FFF7D3FF06462402284644EA0744FFF7DFFF44EA060026
:20066000F8BD70B50446FFF7D4FF4B212046FFF7C1FF0425A5212046013DFFF7BBFF15F0BD
:20068000FF05F7D1254604F10806A5212046FFF7B1FF05F8010FB542F7D12046BDE87040C7
:2006A000FFF7BBBF10B50446FFF7B3FF06212046FFF7A0FF2046FFF7B0FFBDE810400120D0
:2006C00006F03FB938B50C460546FFF7A2FF012C0FD105212846FFF78DFFA5212846FFF7BE
:2006E00089FF044685F824002846FFF796FF204638BD022C0BD135212846FFF77BFFA5212F
:200700002846FFF777FF044685F82500ECE715212846FFF76FFFA5212846FFF76BFF04465A
:2007200085F82600E0E710B50446012084F8270006F007F92046FFF774FFC0B211380F28C5
:200740004ED8DFE800F04643403D3A373430084D4D4D4D4D4D4908224FF4007322704FF40D
:20076000807262814FF4805222611A0162611A02E2604FF48032E3619B01A261236220460D
:20078000FFF76FFF01212046FFF79CFF02212046FFF798FF03212046FFF794FF012000236F
:2007A00084F8273010BD07224FF48073D6E706228023D3E705224023D0E704222023CDE79A
:2007C00003221023CAE702220823C7E701220423C4E700220223C1E709224FF48063BDE73A
:2007E0000020DCE710B50446012006F0AAF82046FFF70FFF05212046FFF7FCFEA52120463C
:20080000FFF7F8FE84F82400012006F09AF894F82430DB07F2D42046BDE81040FFF7FDBE0F
:2008200038B504460D4694F82700012833D00123204684F82730FFF7D5FF236920465D4396
:20084000FFF730FF2046FFF7E4FE2378072B25D921212046FFF7CEFE290E2046FFF7CAFEA5
:20086000C5F307412046FFF7C5FEC5F307212046FFF7C0FEE9B22046FFF7BCFE2046FFF752
:20088000CCFE2046FFF7AEFF012006F05AF8002384F8273038BD06F054F8C4E72021DCE740
:2008A0002DE9F04104460F4690461D46069E94F82700012840D0012384F82730638972191B
:2008C0009A4200D806B95E1B2046FFF78BFF2046FFF7E8FE2046FFF79CFE638908FB0355C7
:2008E0002378072B2BD912212046FFF783FE290E2046FFF77FFEC5F307412046FFF77AFE33
:20090000C5F307212046FFF775FEE9B22046FFF771FE324639462046FFF764FE2046FFF7B1
:200920007CFE2046FFF75EFF012006F00AF8002384F82730BDE8F08106F003F8B7E70221AD
:20094000D6E72DE9F341089E05690746B542884623D3002E08BF2E469D421BD9F1188D4260
:20096000798938BFEE1A5543B3FBF1F2B5FBF1F501FB1234154423462A46414600963846A8
:20098000FFF78EFF7B8901351B1B0024F61AA6429844F0DC02B0BDE8F0812E46DCE72DE98B
:2009A000F04104460F4690461D46069E94F8270001283ED0012384F827306389B3423BD3BA
:2009C000002E08BF1E4672199342204638BF5E1B08FB0355FFF71DFE2378072B2ED90C211B
:2009E0002046FFF707FE290E2046FFF703FEC5F307412046FFF7FEFDC5F307212046FFF76F
:200A0000F9FDE9B22046FFF7F5FD00212046FFF7F1FD324639462046FFF7E0FD2046FFF700
:200A2000FCFD012005F08DFF002384F82730BDE8F08105F086FFB9E71E46C4E70B21D3E700
:200A40002DE9F341089E05690746B542884623D3002E08BF2E469D421BD9F1188D4279891A
:200A600038BFEE1A5543B3FBF1F2B5FBF1F501FB1234154423462A46414600963846FFF7B3
:200A80008EFF7B8901351B1B0024F61AA6429844F0DC02B0BDE8F0812E46DCE703680133F7
:200AA00004D04068431C5842584170470120704710B504680B689C4209D04068496888421B
:200AC00005D08C4203D0181A18BF012010BD0020FCE740F30903B3F1FF3F08BF0130C0F3DA
:200AE00009000430704710B5031F0439083053F8042F51F8044F834282EA04021A60F6D114
:200B000010BD08B5036802461B0D13F4E06005D0101DFFF7CDFFB0FA80F0400908BD10B578
:200B2000836E1A6A436DD31A1944B1FBF2F302FB1311836D8B420AD90122406E4C0950F886
:200B4000243001F01F018A40134340F82430002010BDFFFF164A11F0805F30B5154C18BF3C
:200B60001446036883EA010525421FD043F3090401341BD001EA02040F4A1A4042F09F42CD
:200B800042F4E002944211D00A0D02F4E064B4F5806F09D1C3F38924C1F389218C4222BF53
:200BA00052B203EB82230360002030BD0120FCE700FCFF7F00FC0F7000FC0F00024608B525
:200BC0000846FFF786FF136803441360002008BD036B1944C1F30903003B18BF012321F060
:200BE000004141EAC371016370470368013303600020704710B5836E04461B6B13B9C068E7
:200C00000EF058FBA36E5B6B13B9E0690EF052FBA36E9B6B13B9606E0EF04CFB002010BD69
:200C20002DE9F04F87B00292826E8A46DDE9114810990493136A81468B42139E40F2AB8056
:200C4000D269A319934200F2A680049B013B05930EB930469CE0BAF1000F3FD0DAF80030B9
:200C6000109A9A423AD1DAE9015305EB030BA34534D9A54211D8ABEB040BB34528BFB3468C
:200C8000DAF80C10651B40465A4629440FF024FCD8445C44A6EB0B06DAE72D1BB54228BFEF
:200CA0003546029B109A1B689A421DD1029BD3E901130B449C4217D28C4211D31B1B9D42DB
:200CC00028BF1D46029B611ADB6840462A4619440FF002FCA8442C44761BB9E73546E0E750
:200CE000091B8D4228BF0D46049BB34220D8D9F868004369B4FBF3F203FB1242C2B99E4215
:200D000016D3B5FBF3F203FB1253A5EB030BCDF800B00393436822461F4610994346B847A0
:200D2000002835D1039BD8445B1B5C441E448FE7109B029A02991360D9F868305A69B4FBAD
:200D4000F2F302FB1343E21A4A60D9F868500599D5F814C01B1B01EB0C002044B0FBFCF1C3
:200D60000CFB1101401AE969884294BF1B185B18A96A8B4228BF0B4602998B60D9F8680014
:200D80000093CB6845681099A84700283FF460AF07B0BDE8F08F6FF05300F9E730B5134633
:200DA00004460268082087B004AD916E03900295586801901B6810460093CB6902F1100151
:200DC000FFF72EFF30B92846211DFFF771FE003818BF012007B030BD2DE9F04F93B016462E
:200DE00009931368826E0746126A0C46934205D36FF05305284613B0BDE8F08F71688A4273
:200E0000F6D900214FF004080CAACDE90112009302464346CDF80C80CDE90C11FFF700FF9B
:200E2000054610B110F1540FE4D1CDF80C804FF000080DAB0293CDF8048073683A46009371
:200E4000414604233846FFF7EBFE0D9B0546002849D010F1540FCDD1414656F821304FF0EC
:200E6000FF35236081F00103079356F82330636012AB03EB810151F8183CA3600023E36015
:200E800002230893AF4A0EAB92E80300042283E803004FF0FF3004F1080102F0A5FB0023AE
:200EA000A8464FF0FF3A9B46CDE9053304905046FFF70FFE042283440DF12C09BB6ECDE9D1
:200EC00001B9039222680021009238463A46DB69FFF7A6FE064668B110F1540F40F0308100
:200EE0000023A37529E00C9A9B1A002BD4BF00210121B2E749460422049802F075FB0B9B60
:200F000004901BBA8AEA0309B9F1000FCDF82C902EDA4FEA1A5A0AF4E06ABAF5A06FE368A8
:200F200008D1BA6E9269B3FBF2F102FB1133B3FA83F6760906F00106A675E368002B00F0C0
:200F40002481214607F13C00FFF7DBFD002800F00681FB6BC5F38922C3F389239A4240F0AD
:200F6000F78045F000451D9B002B40F0FA8003E14846FFF7AEFDBB6E5844DB699842AFD876
:200F80004FEA195202F4E062B2F5A06F216840F082800422039210AA02920BF10402CDE943
:200FA0000012384631463A46FFF73AFE064630B110F1540F40F0C4804FF0000391E7109B12
:200FC000049A9342F8D10B98030D89EAC379FB6A5340FB62FFF77DFD059B4FF0FF32A38279
:200FE0000E9B5844A3610F9BC4E90309E361069B0492E37543464546CA46984657E701220F
:20100000049810A902F0F0FA0AF1010A04900B98FFF75FFD5045236817D90121BA6E039122
:2010200010A902910AEB0B01CDE900313846D36900213A46FFF7F4FD06460028DFD010F116
:20104000540F7DD14FF00003A3750B9B20681A0D12F4E06122D1059AC3F389239A4201D840
:20106000013305931C9A0B99236881EA020A099A1AEA020A4ED110930BF10403119310AA72
:20108000DDE91E309847061E41DA16F1540F57D184F816A051E74FF0040AB8E7B1F5806FA1
:2010A0001DD1059851B240FA82F292B20592264A08EA020242F09F4242F4E002934202D1E0
:2010C00048F00048CEE7B8F1FF3FCBD0C3F38923C8F389229342C5D808EB8128C2E7B1F534
:2010E000C06FBFD102F0010308220693BB6E03920EAA02920BF10402CDE9000200213A4613
:201100003846DB69FFF78CFD5430ABD1E8E60B9B03D198464346A8466DE70C4A88EA0301D1
:201120000A4052B1022EF5D1C8F38922C3F389218A42EFD343F00048ECE74FF0FF38E9E784
:20114000354657E6A84B020000FC0F0000FCFF7F691C3FF408AF9A4288BFA5F580651D9B94
:201160003BB1A28AC5F38923934228BF13461D9A1380002DBFF63EAEA38AC5F38925AB4246
:2011800094BF00256FF0010534E6D4E90032C4E90023079B12AA02EB830353F8183CA36026
:2011A000089B012B3FF424AE012308936AE600BF2DE9F0470123002405460E469246C2E9D6
:2011C0000643174FDFF85C80DFF85C9088B00AF118021046FFF762FC10B16FF0010018E0DA
:2011E000AB6E1B6AB4EB530F16D23368514606937368CDE90080079305ABCDE902732846A9
:201200004B4601340595FFF7E7FD0028DFD0831CDDD008B0BDE8F0876FF05300F9E700BF4C
:201220009D0D010008000020FF03F07F1FB50023CDE9023301934FF0FF330093FFF7CCFD31
:2012400005B05DF804FB2DE9F04101230024064688461546C2E9064302F118073846FFF707
:201260001DFC10B16FF0010011E0B36E1B6AB4EB530F0ED2414638460134FFF719FC30B196
:201280003A4629463046FFF7D1FF0028E6D0BDE8F0816FF05300FAE72DE9F04F074688462C
:2012A000914693B01E46BDF88030BDF988B00C93BDF88430DDF870A00D931E9BC3F38F23AF
:2012C0000B934FEA8B230A933046FFF702FCD8F80C3000EB09049C4252D2042303930FAB05
:2012E000CDE90143D8F800303A460093002104233846FFF795FC00283FD1A1460F9B10AD0E
:201300001BBA734043F00046D8F800300F961093231D11931F9B0F9C5C401E9B1C40424BFD
:201320001C40D1D10B9B002B38D10F99C1F30A53002BC9D040F2011293424FD1249AC1F3AC
:2013400009030892239AC1F3892107925A1CCDE904324FF00052C91A344B5944CDE9023257
:20136000002209B206914FF0FF3329463846CDE90022FFF791FF0028A6D013B0BDE8F08FB8
:201380001D9B002B4EDDDAF80030DAF804500F931D9B0AF1080A013B1D93BBE70FAB0893CD
:2013A000234B4A46CDE906431D9B4146CDE900A338463346CDE90444CDE90244FFF76CFF46
:2013C0000028DADB80D10F9B0C9AC3F389239A423FF67AAF0D9A9A42A7D875E7B3F5817FED
:2013E00019D10F9BC3F309029442BFF46DAFA968C3F389235B4441EA83212B786A6803F5A5
:20140000407341EA0351DDE9233098470C350028B3D10134E5E70A9B2A461944DDE9233029
:201420009847A8E70020A8E70000F07F00FC0F60550B01002DE9F04F064687B03C30914639
:201440000F469A46D1E903830593FFF75AFBC9F3892B044658B1BBF1000F78D0F36B3D4C87
:20146000C3F38922CAF389239A4288BF0024059D2846FFF72EFB031D434534D80423A8EBBE
:201480000008039305ABCDE901833B6832460093002104233046FFF7C3FB30BB059B1BBA44
:2014A0006B4023F000430593BBF1000F23D02A0D02F4E063B3F5806F1DD1AAEB0403C3F39E
:2014C0008920C5F38921884215D323F07F4323F4700323F47F7323F0030343F0804343F4A1
:2014E0008013AB4204D16FF0010007B0BDE8F08F52B204EB8224AAEB0401694011EA09017B
:20150000B5D145F309030133EDD0129BC5F30909994528BF9946119BCDF80C900293109BA8
:2015200032460433434401933B68304600934B46FFF776FB0028D8D1129B0146A3EB0902DF
:20154000119B03EB09000EF079FE6019CDE75C468DE700BF00FCFFFF1FB5C3F3090402944A
:20156000069C019400240094FFF764FF04B010BD30B587B003AD1446084B094A0095FFF74B
:20158000EBFF002804DA831C00D1002007B030BD29462046FFF7A7FAF7E700BF0C00F07FA3
:2015A0000000F07F2DE9F04F8DB081460D461768069205931BB140F2FF33059A1380D9F82E
:2015C0002030474CAB61D9F82430EB61454938460EF07FFE07EB00088346424940460EF052
:2015E00042FE0128064608EB000A05D117F80B302E2B0AD15746E9E7022806D102463A49AC
:2016000040460EF00BFE0028F4D057464FF0010B504634490EF05DFE8244504631490EF029
:2016200022FE024690B102280CD107902E4950460EF0F4FD079A28B9BBF1010B04D10AF15D
:201640000207C3E70BF1010B9244E1E798F90030002B3DD0069BC3F80080C4F30A53022B1B
:201660003AD140F2FF33C4F389249C4205F1180A22D10DF1240B2F2140460EF0E7FD0028A1
:20168000059B18BF0023194A2946CDE9013248464FF0F0435246CDF80CB00096CDE90998EF
:2016A0000B96FFF799FB041E12DB8FD1EB7D002BE1D16FF001040BE00D4B294643EA842361
:2016C00048460C4ACDF800A0FFF746FF041ED0DA20460DB0BDE8F08F6FF01304F8E700BF5F
:2016E00000FC2F0006370200C53602001B1801000800002000FC0F702DE9F04F154687B0C5
:20170000826E119C139ED2698946A119914207464ED86FF0010ADFF8A0B003F1FF380EB9EE
:20172000304642E02B68E868023317D1D5E901120A44944212D28C4210D3121BB24228BF7F
:201740003246611A0144129805920EF0C5FE059A129B144413441293B61AE0E7C5F800A0BB
:20176000BB6E5B69B4FBF3F203FB1242A21A6A60D7F868C0DCF814E008EB0E032344B3FB38
:20178000FEF10EFB11315B1ADCF828108B4228BF0B464946AB60CDE90103009238465A4685
:2017A000109BFFF747FE0028B9DA07B0BDE8F08F6FF05300F9E700BF00FCF7FF2DE9F04F15
:2017C00089B0DDE91356074698462C464FF0010A05912E4405EB02090DF11F0BB44201D1C7
:2017E000002017E0129B00215B1B2344CDE900833846CDE902BA059AA9EB0403FFF710FAC4
:2018000040B914F8012B9DF81F309A42E6D08CBF0120022009B0BDE8F08F30B5134682688E
:20182000C1F30905AA4228BF2A4685B002924168044601915968009101681B680846FFF7D3
:20184000BDFF28B9A368AB4202D034BF0120022005B030BDF8B5C6690D68083EB5420F4666
:2018600013D3B5FBF6F001380DF0F4FC841CA5EB8404B4FBF6F420460DF0ECFCA5EB800515
:20188000204604FB16553D60F8BD0020FCE72DE9F04F89B006460F46DDF84C8005924BB9B8
:2018A0004FF0FF32C8F800200020149A136009B0BDE8F08F846E013B07A920460793FFF7E6
:2018C000C9FF12A905462046FFF7C4FF4FF0040A81460DF1140BA945059A03D3129BC8F81A
:2018E0000020E1E795FAA5F3A5EB0904B4FA84F4B3FA83F3C4F11F049C4228BF1C46A30051
:20190000CDE90023002104233A463046CDE902BAFFF786F90028CAD10123A340ED1ADAE737
:201920002DE9F04F89B00646DDE9120A0F4690461D4688B30138059005A9B06EFFF78AFF09
:2019400004460DF1180B29461498D04720BB1CB304F00109C9F102039B00CDE9005042465A
:2019600039463046CDE902B3FFF75AF9A0B9E54305F00105A84207DB08AB03EB8505023C0D
:2019800055F8085C4C44DEE706991498D04703460120002BEED0184609B0BDE8F08FC36826
:2019A000184710B50C46826AFF21E0680EF046FC4FF0FF33236010BD38B581660B6B0446C8
:2019C0000D46002B35D0C3606B6B002B3DD0E36128462146FFF7E5FFA06E04F11001FFF756
:2019E000E0FFA56EAB6B002B36D06366EB6B40F2FE32002B08BFFF23E3662B6C0020002BEE
:201A000008BF6FF0004323676B6CC4E90A00002B08BF134663674FF0FF33C4E90F00C4E956
:201A20000833C4E90C00C4E912006064A063206538BD886A0DF036FCE0600028C4D120462E
:201A4000FFF7D8F86FF00B00F2E7A86A0DF02AFCE0610028BCD1F2E7E86A0DF023FC606645
:201A60000028C3D1EBE72DE9F0430D4609689846CB1C0646174685B003D9002005B0BDE8D2
:201A8000F083806EAC6882691444013CB4FBF2F302FB1343E41A0094D0F80890EB686A6853
:201AA000C8470028EAD1B8F1000F04D12946B06EFFF777FFE1E74FF0FF333B600294EB68F1
:201AC000224601936B683946009330462B68FFF775FE0028D2DBE9D06FF05300CEE72DE9A8
:201AE000F84F07460C46924699464FF0000B0B9EDDF83480B8F1000F01D1404630E0236822
:201B00000A9A93422ED16068B0422BD8BB6E9D6A0544B54226D9AD1B454528BF4546E36812
:201B2000301A2A4618440C990EF0D6FC6368A2682E44F31A934238BF1346A360BA6E926A7A
:201B40009A4205D00C9BA8EB05082B440C93D1E74B46524621463846FFF785FF0028F1D056
:201B6000BDE8F88F0A9B2360BB6E9A69B6FBF2F302FB1363F31AC4E9013BBBE7F0B585B06A
:201B8000CDE902231D464B680C4601930B68174600930246002300F11001FFF7A0FF0646BD
:201BA00040B92A463946E06801F01EFD6368E0602B446360304605B0F0BD2DE9F04F064633
:201BC00087B010469946FEF784FF4B6893464A69034493420C46804641D88B682BF0004A3D
:201BE0008AEA03031BBA05933046042305AAFFF7C5FF054678BBBBF1000FA8F1040720DA21
:201C00000DF1130B2FB30123CDE902B3D9F804303246043B4344DB1B0193D9F80030002148
:201C2000009330463B46FEF7FBFF40B901235A4621463046FFF7A2FF013F0028E2D0054695
:201C400009E03B464A4621463046FFF797FF0028F5D1C4F808A0284607B0BDE8F08F6FF027
:201C60001B05F8E713460A46D0E90001FFF7A5BF2DE9F04F4B688DB00593CB688046069339
:201C8000836E0D469A69059B40F2FE3BD7180737B7FBF2F302FB1373FF1AA7F10803079355
:201CA0006B68BB4221D341464FF0FF33424641F8103B40460023FFF7D6FE0446002840F047
:201CC000AE80D8F86800036998470446002840F0A680059B2E6903F1040ABE4280F09F80C3
:201CE0004FF0FF390AF1040B7DE003F1040AA7EB0A035B4594BF0AEB03060AEB0B06BE426E
:201D000003D2079B9E4228BF1E464FF0FF330993042309AACDE9016203932A680021009246
:201D200040464246FEF77CFF044610B110F1540F75D1099BA6EB0A061BBA6FEA03094FEAB8
:201D4000D97303F5A06346EA035646F47F26AB6846F440660AAC09965E4021460422E86811
:201D600036BA0A9601F040FC0823E860CDE902436B680B9001932B684246009340460023DF
:201D800008F11001FFF7ABFE0446002847D109996B68C1F30902043213446B604FF0FF3313
:201DA00009F0004989EA0101A960EB6078E7059B9E4202D1069B99452ED1012303930AAB79
:201DC000CDE901632B684246009300214046ABEB0603FEF725FF08BB484601220AA901F0C4
:201DE00003FC81460136B345E1D8B9F1000F1AD140F2FE33A7EB0A029A4294BF0AEB020664
:201E00000AEB0306BE4204D2A7F108039E4228BF1E4606F1040A60E76FF053000446204672
:201E20000DB0BDE8F08F6FF05304F8E7FEF7E2BE2DE9F04397B00446FFF7BEFD054670BB96
:201E400001461C220EA80EF0F9F901232E46434FDFF81481DFF81491159314A8FEF71EFED0
:201E600008B304F12000FEF719FE0346002872D1226B04F13C0602EBD272226304F1300231
:201E800007CA86E80700A16EE26AC869E365B2FBF0F600FB1622C4E915230B6A2366284611
:201EA00017B0BDE8F083A36E1B6AB6EB530F4FD20823079305ABCDE90283294B0190009341
:201EC0002046284B14AA0EA9CDE90547FEF784FF002806F1010619DB31D040F309000130B2
:201EE0002DD00E9B204623620F9B1E4A636208AB00930EA94B46FFF72FFB002806DB089B20
:201F00009AB21B0C022B06D06FF0150005462046FFF78CFFC3E7002AF6D10B9B1BB1E26E48
:201F20009342F1D8E3660C9B1BB1226F9342EBD823670D9B1BB1626F9342E5D8636720468D
:201F400004F130020EA9FFF713FB002885D0DDE76FF05300DAE76FF01505D8E7C8360200B3
:201F60000800F00F00FCFF7F1B180100180010202DE9F04F91B004460D46164600211C2276
:201F800008A805930EF05AF901234FF0000840F202290F930EA8FEF781FD20B1A76A002F04
:201FA00055D1384641E0A36E1B6AB8EB530F7BD230460E9908F10108A847002835D13046C2
:201FC0000F99A84788BB20460EAA08A9FFF72EF958BB0746DFF8DCA0DFF8DCB0BDF834201C
:201FE000BBB29A42D6D906AA0AEA8723009220462F4A43EA0B0308A9FFF7AEFA002803DA9B
:20200000831C12D10137E9E7B9EB105F4FEA10530ED1079B2246009300212046CDE9015677
:20202000069BFFF77DFC0028ECD011B0BDE8F08F059A002AE6D0B3F5007FE3D13046069958
:20204000A8470028F1D130460799A847EBE7BB79012B01D03F68A2E73B6B03F48813B3F58F
:20206000803F13D03B6B03F49013B3F5003FF1D1CDE901567B6B224600932046BB6B07F163
:202080004001FFF74DFC0028E4D0CEE7CDE90156FB6A224600932046BB6A07F14001FFF708
:2020A0003FFC0028DED0C0E76FF05300BDE700BF00FC0F7000FCFF0308000020F8B50446BB
:2020C0000D460126A36DD4E9171299422CD1002A59D0A16E606D0344086AB3FBF0F700FB40
:2020E000173300276365CB6AE765DB00934294BFA365A265CA6A606E39460EF09FF80123DA
:20210000224620462149FFF733FF0028DAD0A26EE36AD169E765B3FBF1F501FB1533C4E925
:202120001537136A236625E0481CE065013A606E22664F0950F8270001F01F0206FA02F241
:202140000242C0D1A26E636D126A0B44B3FBF2F102FB11332B600125A66DE36DB34210D044
:20216000616E5A0951F8222003F01F0005FA00F0104000D1F8BD0133E365236E013B2366F9
:20218000EBE70020F6E76FF01B00F3E71F0B01007FB50C4604310646FFF790FF054628BB37
:2021A00021463046FFF78AFF0546F8B92246042342F8080FCDE90223019022680146009218
:2021C00030463246FEF72CFD10B110F1540F10D1A3680422013323F00103A3604FF0FF33FD
:2021E000C4E903230022C4E90523E361284604B070BD0546FAE7FFFF2DE9F04F04460D4666
:2022000087B0204605A9FFF759FF064658B9DDF81480A06E4146FFF7C2FB0646002853D080
:2022200010F1540F56D0304607B0BDE8F08F2A6B0DF1130A12F4801FCDE9017AA3EB0703A5
:20224000CDF80C901CD0AA882449204641EA8222009205F108015A46FFF74EFA70B90123A1
:2022600022462046CDE902A9CDE9008704F11001FFF735FC60B110F1540F2BD00646D2E750
:20228000AA6B5946009220462246FEF7C9FCE5E70137EB6BBB42CAD8A36EE1699A6AE86CC4
:2022A0000EF01AF9236904F110012B6463696B64A369AB64A06EFFF774FB2B6BC5F83880B8
:2022C00043F400332B63AEE707464FF0010905F1400BDEE74FF0FF33236192E70000102037
:2022E0002DE9F04F93B006930B6B06465D030C4609921FD4276B390525D4D4F83480069BC1
:20230000326F08EB0301914200F2578117F400371FD0236BDA022ED4069B059304F140037A
:202320000D93059A236B002A4DD123F40023069D236304E000F044F905460028DAD0284689
:2023400013B0BDE8F08FE26A616B8A4288BF6263D3E7E36A9845DCD96363636B9845D8D9EB
:2023600001232146304611AA8DF84470FFF7B8FF051EF2DAE3E7069B606BB16EC218E36A50
:202380008D6A9A4238BF1A46CB6940F2FE31A94228BF2946DB088B4228BF0B469A42BBD9E5
:2023A000E063B36E21461B6A30463366FFF724FF236B054618B143F400232363BFE723F466
:2023C00080132363A8E713F4003205D0B16EE06BC969884240F0A480DB0200F1D98004F171
:2023E00040030793BAB9636BABB104F13C020292013B04F13802019200933046D4E90A23AB
:202400000799FFF744FA054608B1236BD3E70799B06EFFF7C6FAB36E1B6A3366A36B0B933D
:20242000636B0893013B0C9330460FA9FFF746FE05460028E9D1DDF83C90B06E4946FFF77F
:20244000AEFA054630B115F1540FDED14FF0FF332364E9E7089B1BB9C4F83890E3635BE04C
:20246000B76E0C9B384610A91093FFF7F3F9109B03F1010AFB69CDF840A09A4573D100F10D
:20248000010898FAA8F8B8FA88F8AA460B9B08F1010B119311AF4FEA8A030A930423CDE990
:2024A00002730A9B3246CDE90093304601230799FFF715FB119B05460028C4D1C24557D11E
:2024C0000AF1010AD345E6D8C4F838904FEA8B03C4E70B9B3246009300213046CDE9027BAF
:2024E000CDF80480AAEB0803FEF79AFB054600288BD1012332463046CDE9027BCDE9009807
:202500000799FFF7ECFA054600289CD108F10108C245DED8C4E90E9A236B43F400332363CD
:20252000B36EDF69E36BFF1A059B9F4228BF1F46099B03970293E36B32460193A36B30464D
:2025400000930D990123FFF7CAFA054628B310F1540F7FF45AAF21463046FFF74DFE0546F5
:202560000028E5D051E7A8464FF0010B11AFCFE70422CDE902720A9A0146CDE900323046FE
:2025800004233246FEF74CFB0546002898D03CE76FF00103A363636B60E7636B3B446363D1
:2025A000E36B3B44E363099B3B440993059BDB1B0593B36E1B6A3366B3E66FF01A05BEE621
:2025C000F0B50B6B0C465903054697B008D5DA0258BF4FF0FF3223F4802358BF2264236383
:2025E000216B8B0302D4002017B0F0BD11F48011666BE76A3FD1542201A80DF01FFEA36A49
:20260000CDE90B37244B11AFCDE90D3695E80F0087E80F004FF0FF372F60626BE36A9A4296
:2026200012D304F1400701232A4639462846FFF71AFA20B310F1540FD6D121462846FFF745
:20264000DBFD0028EFD0CFE7012328460DF1030201A900F023F80028C6DB012321462846F9
:202660000DF10302FFF73CFE0028BDDB2B680133D3D01197D0E7B7422CBF67636663A36B19
:20268000A362636BE362236B23F4003343F48033C4E90C36A7E700BF010020002DE9F04FAE
:2026A0001D460B6B07469E030C46904685B005D4636BE66AB34208D3002003E0FFF780FFB7
:2026C0000028F5D005B0BDE8F08FF61AAE4228BF2E46B146DFF8ACB004F1400AB9F1000FB7
:2026E00001D13046EEE7226B510304D5BB6EE16BDB69994215D1D202636B36D404F13C02AA
:20270000029204F13802CDE900325146D4E90A233846FFF7BCF80028D4D1236B43F4802330
:202720002363BB6EE26BDB69216B9D1A4D4528BF4D4611F48011CDE9028501921AD0A28890
:2027400038464BEA8222009204F108015246FEF7D3FF0028B6D1636BA8442B446363E36B47
:20276000A9EB05092B44E363B8E76FF00102C4E90E23D2E7A26B384600925246FEF750FA76
:20278000E7E700BF00001020002307B5044901AA0193FFF7EDFB00B9019803B05DF804FBDA
:2027A000EB0B01002DE9F04F04460D464FF000089A460B689DB00C934B68BDF89C70BDF881
:2027C000A0900B920D93A9EB0706012E5DDCAB680133AB60A26E526A002A2CDD013242F0CD
:2027E0000102B3FBF2F102FB113323BB0126284614A914931596FEF75BF9002833D12046A7
:20280000FFF7C2FFB0F1000BC0F28780A36E1B6ABBEB530F0FD2269B29460093204653465B
:20282000CDE901790B9A00F0A3FE834600287AD010F11C0F71D1002600234FF0FF3B6968F6
:20284000CDE9153BCDE917B3A06E1491C369083B1993FFF7A4F80246002868D012F1540F84
:2028600040F0A58100264FF0FF334FF0010823610023284614A9CDE91438FEF719F9002820
:2028800040F097816FF01B0B47E014AB0893B54B002207937B421BB2CDE90593B24B2046F3
:2028A000CDE901A30B9BCDE90387009326994FF0FF33CDF85080FEF7EFFC834668BBFE2E88
:2028C00012DCA36ED3E90602431E03EB5203B3FBF0F100FB1131243A5B1A934228BF1346DD
:2028E000149A9A427FF673AF269B07EB6606B6B20093294653462046CDE901690B9A00F07A
:2029000037FE834668B110F11C0F06D1A36E1499DB69243B8B42BFF45AAF58461DB0BDE8A3
:20292000F08FB1464FE7B94685E7464684E70DF1500805F10802042341462046FFF71EF912
:20294000024600288AD10EAB0893884BCDE9030707937B421BB2CDE90593834B2046CDE969
:2029600001A30B9B269900935B46CDE90E48FEF793FC024600287FF471AF05F1180108462A
:20298000FEF78CF870B9EA7D0B46794902F5C06241EA025220464146FFF70FF90246002828
:2029A0007FF45CAF0023CDE9103312934EB904F13C0110A8FEF797F804F1300110A8FEF790
:2029C00092F804F1480B594610A8FEF78CF8109B10AA6FF30903294620461093FEF7C8FD50
:2029E0000246002840F0E380DDE910321343129A134309D05F4A4146204610ABFFF7DDF87F
:202A0000024600287FF42AAF41462046FFF730F9024600287FF422AFD5E90031C5E900138A
:202A2000159BA9EB0707EB60169BAF822B61A064CBE90100002E00F0B28004F120010CA8B8
:202A4000FEF736F818B92B6823626B686362A66AD6B9424620460CA9FEF7AAFBB0F1000B4A
:202A60002BDA1BF1020F7FF458AF424620460CA9FEF7E9FB8346002856D010F1020F7FF4A2
:202A80004CAF4FF0000B48E706F108010CA8FEF70FF818B92B68B3606B68F360B379022B1C
:202AA00009D106F12C010CA8FEF702F818B92B68F3626B6833633668CAE701212046FEF787
:202AC00087F8414604F13000FEF71BF8A8B90023109300234146CDE9113B2046022310AAAB
:202AE000139500F079F8834600287FF416AF4FF0FF312046FEF76CF8B7E7236BA663C3F38B
:202B000089216FF39E23C4E90C36CBF38923994205D2ABF5806B184B43EA8123D8E740F22D
:202B2000FF339942D3D0F6E7414604F13000FDF7E8FF18BB0023109300239DF86720119305
:202B40000B4B02F5C06243EA0253CDE9123541460223204610AA00F03FF88346002890D043
:202B6000DBE600BFBD0B010000FC0F40651C010008FC0F000CFCFF7F0000F04F236BC4F81D
:202B800038B0C3F389216FF39E23C4E90C3B40F2FF339942CED00F4B43EA8123CBE704F127
:202BA0003C03303494E8070083E8070069E79346B3E62046291DFFF781FA834600283FF47A
:202BC000B4AE10F11C0F7FF4A8AE002E3FF45AAE32E600BF0000F04F2DE9F04F05460C462D
:202BE00090469946866AA1B0002E68D1A44610AFBCE80F000FC79CE80F0087E80F004346AC
:202C000040F2014040F2FF4708EBC901994240F0868076B1A38A63B92146284618AAFEF7FF
:202C200012FB8446002800F09D8010F1020F40F0A780A37D13B9A38AFE2B2DD94FF0FF3168
:202C40002368E2681893CDE91B122369A96E19921A93C969284608391D910BA90891A3494E
:202C60000DF1600B07910021CDF80080CDE90511CDE90311CDE9019121460B95CDF830B063
:202C8000FEF70AFB8446002800F082801CF11C0F02D01CF1540F73D14FF0FF332B61A38A6E
:202CA0004246029300232146CDE9004328464B46FFF778FD8446002800F0AE8060E006F1C3
:202CC0000800A04201D136688EE72146FDF7F0FE0028F8D1B379012BF5D1336BDB02F2D58B
:202CE000AB6EF26A9B6A9A42EDD9736B3146F363AB6E28461B6A2B66FFF77EFA844650B92F
:202D0000336B314623F4801328463363FFF758FC84460028D7D0604621B0BDE8F08F1A68F0
:202D20004FEA125CC2F30A52824204D1A28A0132A28208336AE7BA4204D1A28A0126013AD4
:202D4000A282F6E70CF4E062B2F5C06FF1D15A681268A2615A685268E2611A68C2F3005211
:202D6000E275E6E79DF87730002B3FF462AF2246284618A900F0BEF8844600283FF459AF1A
:202D800010AD0FCD0FC495E80F0084E80F00C2E705F130073946CDE90D000F9005F13C06D1
:202DA0000DA8FDF7A0FE05F1480A31460DA8FDF79AFE51460DA8FDF796FEDDE90E210D9B5B
:202DC0000A436FF309031A430D9311D0214628460DAAFEF7CDFB84460028D1D15946284670
:202DE000434A0DABFEF7E9FE844600287FF44EAF59462846FEF73CFF844600287FF446AFB9
:202E0000199BE3601A9B236197E8070086E80700C5F848C0CAE901CC40F2014B4FF0FF3A4C
:202E2000AE6A26B9AC6A002C43D1A44673E706F10807A74201D13668F3E7384610A9FDF79D
:202E400037FE86460028F6D1A446BCE80F000FC79CE80F0087E80F00CE45ECD040F2FF41BD
:202E600058F83E30C3F30A528A4213D1B288C3F389239A4204D1C6E902AA0EF1010EEBE74A
:202E8000FBD9B379013A022BB280F6D1B36A013BB362F2E75A45F0D1B288C3F389239A42B2
:202EA000EBD3B3790132022BB280E6D1B36A0133EEE704F10806304610A9FDF7F9FD38B9AC
:202EC00004F12007A388A18B8B4201D3E07F08B92468A8E75B1A3A4631462846A380FEF7B1
:202EE000A5F984460028EDD015E700BF651C01000CFCFF7F73B514460E4600F1480221464A
:202F00000546FEF735FB70B9E27D084B02F5C06243EA02530093183401236A463146284633
:202F20000194FFF759FE02B070BD00BF08FC0F0070B5C36B04461B0D13F4E06F9EB005D1BF
:202F4000236BC3F30903FBB900201BE000F1400216A9FEF76BF9A8B9E36BA063C3F38922F4
:202F6000236B16A96FF39E23C4E90C30334B43EA8223CDE90E300EAA01232046FFF72CFE52
:202F80000028DDD01EB070BD1C22002106A80DF055F901238DF82F300D930CA8FDF77EFD3E
:202FA00030B1216B2046494249B2FDF711FECBE720460CAA0EA9FEF739F90028E2D19DF899
:202FC0002F30002B30D1204616AA0CA9FEF7F0F8002809DA831CD5D120460EAA06A9FFF79B
:202FE00089FF0028CED1D8E702AD0346144A2046009516A9FEF7B0FA0028C3DBDDE90C324A
:20300000029999420CD1039B93420DD00D4B2046CDE9043504AA012306A9FFF7DDFDE0E748
:203020009142F3D1039AEFE706AD0EAE0FCE0FC596E80F0085E80F00AFE700BF0000F04FC9
:2030400000FCFF7F08FC0F602DE9F04FA9B005460191FFF76DFF044688B9AB6A28461E93D7
:2030600001AA0DF10E0320A9FEF79CFA831C044609D140F2FF33BDF80E90994508D12046AB
:2030800029B0BDE8F08F0028A8BF6FF01004F6E7DDF804A050460DF02CFAEB6E804683423E
:2030A0006CD3AB6E06AE1B6A314628462B66FFF76FF804460028E2D10EAC20AF0FCF0FC44D
:2030C00097E80F0084E80F0014AF9DF84F30002B4BD1DFF8B8B001233146284604AACDE91D
:2030E00004B7FFF779FD04460028C8D19DF89730D3B101212846FDF76BFD1EABAB6216AA3C
:2031000001230EA98DF87E40ADF87C40CDE916B6FFF762FD1E9B0446AB620028AFD14FF062
:20312000FF312846FDF754FD164B48EA892843EA892316930023179348F40013CDE9183AC2
:20314000114B284643EA8923CDE91A369DF8973016AA002B0D4B18BF002320A9CDE91C365C
:203160000423FFF739FD044689E73A4628460EA9FEF75CF804460028A7D080E76FF023047E
:203180007DE700BF000010400800002008FC0F6070B50B6B05461E030C4686B040D4FFF788
:2031A0000FFA226B20B142F40022226306B070BDD10335D504F108063046FDF76FFC00280A
:2031C0002ED1D3025FBF6B46D4E90A010822C3E900014CBF40F2012040F20220A18844BFCF
:2031E000E26AE36C42EA812242EA0052CDE90223226D2846936843EA812343F081530493A5
:2032000053683146059302AA0223FFF7E5FC236B18B143F400232363C8E723F48033236306
:203220000020C3E770B505460C46FFF7B1FF0646AB6A05F128021BB1A34219680CD111605B
:20324000236D1B6813B9E06C0CF034F8236B304623F40013236370BD1A460B46EBE7FFFFB9
:203260002DE9F047984603F003038AB0012B06460D46039235D1129B05F108072B6548F40C
:2032800000132B63002339466B63EB63EB6430462B1D03AAFEF786F9041E06DAA11C17D1FA
:2032A00040F2FF33AA889A4212D00123AB71B36AA21C2B60B56251D118F4807F08D0039C59
:2032C00020460DF016F9F36E834213D26FF023042B6B294643F4002330462B63FFF7A2FFF1
:2032E00004E0FFF725FE04460028C4D020460AB0BDE8F087AB88634A40EA832042EA832211
:203300000492002240F48010CDE906045E4C059244EA8323CDE9083239460323304604AAA3
:20332000FFF75AFC0028D1D14FF000084FF00C09DFF85CA12B6D9A68424535D81B68002B2C
:2033400066D0EB64B06E05F14001FEF72AFB40F20123B3EB145F65D00024C7E718F4007F80
:2033600040F08780240D012C40F08680AB8818F4806F4FEA832308D043F000542B6B44F448
:20338000801443F480332B63CEE705F1280243F000530092394630463C4A43F00803FEF786
:2033A000DBF8041EC0DA93E72A6B02F00302022A08D12B6B2A6D03F0030101291DD108F13E
:2033C0000108B7E709FB08F25868B5F804C081188B68825C496843EA8C2302F540720091E6
:2033E00043EA0253394652463046FEF7B5F80028DFDA831CDDD004466AE7526809FB08226C
:203400009168726F91423AD843F480332B63D6E7B36E986A0BF046FFE864002892D16FF01F
:203420000B0455E72B6B6FF0010243F480132B630023C4F30904AA62EC622A646B64B36E32
:203440009A6AAA64002C87D040F2FE33934228BF1346A988EA6C43EA812300923946304680
:203460000A4A43F00053FEF777F8041EBFF674AF2EE76FF010042BE76FF0140428E76FF095
:203480001B0425E7000010400000102000FC0F7000FCFF7F13B5034C0094FFF7E1FE02B05A
:2034A00010BD00BF9C4B020030B597B00546FEF783FA044600284FD1AB6E0146DA6A686EA2
:2034C0000CF0BCFEAB6E6C65DA6A196AD2008A4294BFAA65A965EC651B6A28462B660EA9EB
:2034E000FEF756FE0446002833D14FF400330293AB6E0EA9DA691B6A03920493EB6E08AA33
:2035000005932B6F06936B6F0793154BCDE90830144B28460A93144B0B93144B0C9302AB0C
:203520000D930323FFF758FB044690B9012300906A4628460EA90193FDF778FE044640B91F
:20354000034602468DF84E000EA92846FFF744FB04462846FDF74EFB204617B030BD00BFDF
:20356000000010400800F00FC8360200180010202DE9F0439846836E8DB01B6A0C46036617
:2035800004A906461746BDF85490FEF701FE054628BBE37D3A468DF82730A36930460A933F
:2035A000E36904A90B93BDF85830CDE90193149B00934346FFF7F6F8054680B90123049FF3
:2035C000059A2046A761E261E37506F12001FDF76FFA20B9B9F1000F01D1C6E908722846D3
:2035E0000DB0BDE8F083FFFF30B50C4D0A44914200D130BD11F8013B83EA000404F00F041E
:2036000055F8244084EA101080EA131303F00F0355F8233083EA1010E9E700BFB04B02001D
:20362000002210B504461046A15CA1F13003092B0BD8A0F13003032A01EB030002F1010254
:2036400018BF0001042AEFD110BDA1F14103052B02D8A0F13703EEE7A1F16103052B02D857
:20366000A0F15703E7E70020EEE7FFFF2DE9F0470A688B6806465C1CD018D35C0F46222B6F
:20368000144440F0E18025460023D1F804C0A91A614580F0D9802978222919D1C3F1010366
:2036A000281A3A69184490478146002800F0CC808046AC4216D3002388F800301023012003
:2036C000C6E903393B68ED1A0135BD60BDE8F0875C2905D10135A91A8C4540F2B580013326
:2036E0000135D4E723785C2B06D0013408F1010288F800309046DCE76378752B0AD86D2B72
:203700000FD8622B2AD023D82F2B39D05C2B37D0222B35D048467B6998473B68E41ABC60EF
:2037200095E06E3B072BF5D801A252F823F000BF6937010015370100153701001537010025
:2037400071370100153701007937010087370100662BDFD10C2308F1010202E0082308F191
:20376000010202210C44C3E70A2308F10102F8E70D2308F10102F4E7092308F10102F0E71B
:2037800008F10102EDE72B1B052BC3DDA01CFFF747FFA0F55C43B3F5806F8246BAD3A0F596
:2037A0005843B3F5806F2CD2A31DEB1A052BB1DDA3795C2BAED1E379752BABD104F10800BF
:2037C000FFF72EFFA0F55C43B3F5806FA2D20C21204BC0F3090003EA8A23034303F5803AA1
:2037E000F020042202F1FF3C58FA8CFCE0455FFA8AF320D1012A14BF034303F07F03424460
:20380000B0E77F280BD9B0F5006F0CD3B0F5803F0DD3B0F5881FBFF47DAF0621E0E706210F
:2038200000200122DEE70621C0200222DAE70621E0200322D6E703F03F0363F07F030CF87D
:2038400001394FEA9A1AD1E7002C7FF466AF00203CE700BF00FC0F0010B528B1016881B18F
:20386000D0E901329A4205D310BD8C5C202CFBD80132826082689342F7D8F5D1013B83604C
:20388000F2E70846F0E710B1806800B101B9704700680139F9E738B5044638B1006828B17C
:2038A000A56828440CF025FE0544A56038BD70B50446B0B10068A0B1636813B1A268934236
:2038C0000FD900290DDBA2684E1C1644B34201D3104470BD236923B9B6F1804F03D3002EF5
:2038E0000EDA0020F5E77600236A63B1314698470546B0B9E36920689847C4E90055F0E737
:203900006FF00046F0E73046A369984705460028F0D0A268216801320CF0DEFDE369206826
:203920009847A068C4E900562844D2E72DE9F84F0446084611B90020BDE8F88F2CB3214627
:203940004FF000083D4D0F4611F8013B3BBB3F1B4744F91CFFF7ABFF05460028EBD04FF0FF
:20396000220B07F1010A07F10209461C80F800B0B8F1000F28D13A46214630460CF0ACFDD7
:2039800005F80AB005F8098007E00321FFF78FFF0028D0D02A490CF097FD0120CCE7222B6F
:2039A0000DD8072B08D9A3F10802D2B225FA02F2D20706D41F2BC6D808F10508C3E75C2B08
:2039C000C1D108F10108BEE75C27013C14F8013F2BB9222205F80A2005F80930DDE71F2B0F
:2039E00006D9222B04D05C2B02D033700136EDE7304600F8017B22780D2A0ED8072A10D905
:203A0000A2F10803052B0CD8DFE803F00316120B1014622272700646E8E7222AFAD05C2AC3
:203A2000F8D008490CF074FB0536DFE76622F1E76E22EFE77222EDE77422EBE73700000430
:203A4000D1360200D4360200F8B50D460446002834D0002931D08468FAB9194E74B3236AF7
:203A6000C3B1AB4221D005F1FF3C013B1CF8011F0F46725C02F00302012A13F8012F08BF0C
:203A800001F12007B05C00F00300012808BF203297420FD02468E1E724687CB1216A21B1AA
:203AA00028460CF007FD0028F6D1236A002B08BF002403E00029D9D1F7E70C462046F8BD05
:203AC000D154020089B188B181420ED0836823B98160C1E90031012070475B68002BFAD098
:203AE00019604B6083685960F5E700207047FFFF70B5044648B10CF0FCFC074B451C2846D0
:203B00001B689847064610B93446204670BD2A4621460CF0E1FCF7E788010020F8B50D46EA
:203B20001446074600B3F9B1F2B190421CD093B1D66846F40076E3689B0504D4206A10B1E0
:203B40000A4B5B6898472562E66021463846BDE8F840FFF7B7BF0846FFF7CAFF054618B152
:203B6000E66826F40076E6E70020F8BD88010020034610B528209847044618B12822002169
:203B80000CF05CFB204610BD2DE9F04F8A4606468DB018B900200DB0BDE8F08F0029F9D02D
:203BA000047B102C00F0118118DC013C072CF1D8072CEFD801A353F824F000BF513C010051
:203BC000613C0100953B01003B3C0100953B0100953B0100953B0100713C0100402C00F081
:203BE0002681802C00F0DE80202CD3D1856801215046FFF75CFE0028CCD05B232C26002784
:203C00000370DAF808300133CAF80830DAF80C300133CAF80C30002D40F0DD800221504646
:203C2000FFF745FE0028B5D05D2345700370DAF80C30013BCAF80C3008E005215046FFF714
:203C400036FE0028A6D097490CF03EFC0120A2E706215046FFF72BFE00289BD09249F3E7AE
:203C600005215046FFF723FE002893D08F49EBE7D0E906451A22002105A80CF0DFFA002237
:203C800000232046CDE90223294622462B460BF083FA90B925F000494FF0FF3220464946F4
:203CA000834BA0460BF078FA20BB4FF0FF32204649467F4B0BF052FAE0B97A4905A80CF08D
:203CC00003FC4FF0040B50460BF10101FFF7EFFD00283FF45FAF034605AA0BEB00019942EE
:203CE0005BD1002300F80B30DAF808305B44CAF80830ABE7766930460AF04AFF02460B46DC
:203D0000204629460BF016FA30B13246694905A80CF0FEF98346D6E722462B46664905A85D
:203D20000CF0F6F96549834602AA05A80CF010FA012826D19DED027B8DED007BDDE900637D
:203D400023F0004732463B46404649460BF0FCF908B1B046B946DDE9000122462B460AF0C3
:203D6000C9FD00220646564B21F00047404649460AF078FF02460B46304639460BF0EEF920
:203D800030B922462B464F4905A80CF0C1F98346BBF1190F3FF6FEAE95E712F8014B03F81B
:203DA000014B9CE7006900283FF4F4AE0CF0A1FB441C21465046FFF77AFD00283FF4EAAE79
:203DC000224631690CF088FB40E700690DB0BDE8F04FFFF7ABBD51462846FFF7D5FE0028DD
:203DE0003FF4D8AE5046FFF756FD2B68D3B1DAF814305046002B0CBF4FF001084FF00208E1
:203E000008F10101FFF753FD00283FF4C3AE0670DAF8143043B9431C1F70DAF8083043448E
:203E2000CAF808302D68F6E6831C4470F4E74B698468002B0CBF012502255046691CFFF7F5
:203E400036FD00283FF4A6AE7B230370DAF80C300133CAF80C30DAF814300BB10A2343707D
:203E6000DAF808303A262B440925CAF80830DAF814304CBB002B00F08D80DAF80C100131DC
:203E80005046FFF714FD00283FF484AEDAF81430002B40F08A8003467D221A7000225A701F
:203EA000C5E600BFDA360200DF360200E5360200FFFFEF7FEA360200ED360200F436020073
:203EC0000000B03CF836020093B15046DAF80C10FFF7EDFC00283FF45DAE0346DAF80C2072
:203EE000191A914253D3DAF808301344CAF808305146206AFFF71AFD00283FF44BAE504623
:203F0000FFF7C9FCDAF814305046002B0CBF012702273946FFF7CBFC00283FF43BAE0670FD
:203F2000DAF8143003B14570DAF8083051463B442046CAF80830FFF727FE00283FF42AAE34
:203F40005046FFF7A8FCDAF814702368003F18BF0127002B18BF01375046791CFFF7A7FC14
:203F600000283FF417AE236813B12C2300F8013BDAF8143013B10A2300F8013B002303707E
:203F8000DAF808303B44CAF8083024686FE703F8015BA3E7022173E703F8014BDAF80C2019
:203FA000191A013A9142F7D376E703460924F5E770B504460F4D04B970BDE3682668D905DB
:203FC00004D4A06870B920696B6888B9E3689B0503D4206A08B16B68984720466B6898476C
:203FE0003446E8E7FFF7E4FFE368DA05EBD5EDE79847EBE7880100202DE9F04706460C469C
:2040000092B0002900F0C2800F68002F00F0BE808D68D1F8048005F10409C1450AD80422DC
:20402000834978190CF030F920B90423F360A36804330CE06B1D98450CD305227D497819BB
:204040000CF022F930B90123F360A36805330120A3609CE0C1450AD80422774978190CF0AB
:2040600013F920B90223F36001237361DFE7454580F08C807B5D7819222B06D121463046B5
:2040800012B0BDE8F047FFF7F1BA2D2B03D0A3F13002092A55D800230DF1080C67464FF06F
:2040A000010EA8EB0505DFF89881019310F8012B452A3ED82A2A10D9A2F12B01C9B20EFA98
:2040C00001F111EA080F01D12E2A06D101333F2B0CF8012B01D0AB42E8D1002548336B4447
:2040E000384601A903F8405C0BF0D2FFDDF804A059EC108BBA4549D04BA3D3E90023404671
:2041000049460BF035F8B0B90022404649464B4B0BF024F890B9404649460BF053F80823CC
:20412000C6E906897061F360A368AAEB070A53448DE7652AC9E76FF00040F0E74FF000402D
:20414000EDE75B2B55D1E368B3F57A7F1ED20133E3607B5D5B2B19D101352046A560FFF7AD
:204160007BFBA36898450FD9FA5C5D2A12D100252F46E368013BE36007B17D602023C6E94E
:204180000273A368013362E7013BA360002012B0BDE8F08700252F46013BA3602069FFF78D
:2041A000E7FCA8460546002800F09A80FFB1C8F80000C0F80480A36820460133A360FFF767
:2041C0004BFB21462846FFF717FF60B12046FFF743FBD4E90123934205D22268D35C2C2B70
:2041E000DCD05D2BC5D03846FFF7E2FECEE70746E1E77B2BCAD1E368B3F57A7FC6D20133DF
:20420000E3607B5D7B2BC1D101352046A560FFF723FBA3689845B7D9FA5C7D2A12D1002519
:204220002F4654E0AFF300800000C0FFFFFFDF41DA360200DF360200E53602000000E0C1EF
:20424000E57F000400252F46A846013BA3602069FFF78EFCA9460546002841D0002F3DD077
:20426000C9F80000C0F80490A36820460133A360FFF7F2FA21462846FFF7F8F90028B2D041
:204280002046FFF7E9FA2B69C5F810802B62D4E901239342A7D22268D25C3A2AA3D101337E
:2042A0002046A360FFF7D8FA21462846FFF7A4FE002898D02046FFF7CFFAD4E901239342F5
:2042C00091D22268D35C2C2BC1D07D2B8BD1E368013BE36007B17D60402350E70746C3E7E6
:2042E000002F3FF453AF7EE72DE9F04305464FF0000989B02F4F0C46164600211C2201A8AC
:2043000098460BF09BFFC7E9009925B90024204609B0BDE8F083002C3DD0274BCDE90154F2
:2043200093E8070008AB03E90700FFF721FC0446002830D0019850B1039BE3B9029B042B30
:2043400004D903221D490BF09FFF88B101A8FFF783FA01462046FFF74FFEC8B1B8F1000FE6
:204360000BD1002ED3D0019B039A13443360CEE703230393EAE74846E9E701A8FFF76CFAC8
:20438000DDE90223934203D2019AD35C002BE8D02046FFF70DFEDDE90223934201D332B1FD
:2043A000531E0EB1EA183260C7E90053AEE71346F7E700BFD40E002088010020FF360200C9
:2043C00070B50D461646044648B10CF092F833462A46411C2046BDE87040FFF785BF70BDD8
:2043E00000221146FFF7ECBFF0B515468BB006460C462422002101A81F460BF01FFF002D0F
:2044000011DB94B10123CDE90537094BCDE9014593E807000AAB03E90700304601A9FFF7C5
:20442000B3FB0BB0F0BD0020FBE72046F9E700BF8801002010B18368002003B970471B68F4
:204440000130FAE7002901DBFFF71DBA002070470022FFF7F9BA0122FFF7F6BAFFF732BB2A
:204460000023FFF75BBBFFFF10B5064B04461868FFF77EFB20B1002C0CBF01230223C3608C
:2044800010BD00BF8801002070B5054610460E46FFF7EAFF00230246044631462846FFF75E
:2044A0003DFB054618B92046FFF782FD2C46204670BDFFFFFFFFFFFFD0B5174B57EC106B29
:2044C0001868FFF755FB044670B10823C0E90667C36039460EA3D3E9002330460AF048FE82
:2044E00020B16FF0004363612046D0BD0022304639460A4B0AF032FE10B14FF00043F2E7E0
:20450000304639460AF05EFE6061EDE7AFF300800000C0FFFFFFDF41880100200000E0C172
:2045200070B505460E46FFF7C7FF00230246044631462846FFF7F2FA054618B92046FFF707
:2045400037FD2C46204670BD38B50A4B05461868FFF70EFB044648B11023C3602846FFF719
:20456000C7FA206118B92046FFF722FD0024204638BD00BF8801002070B5054610460E46AC
:20458000FFF7E2FF00230246044631462846FFF7C5FA054618B92046FFF70AFD2C4620469E
:2045A00070BDFFFF08B5044B1868FFF7E1FA08B12023C36008BD00BF8801002008B5044B1B
:2045C0001868FFF7D5FA08B14023C36008BD00BF8801002020B1007BA0F110035842584107
:2045E000704708B50246FFF7F5FF00B1106908BD20B1007BA0F12003584258417047FFFF3E
:20460000014BD3F830331847A80F002010B51E4B1E4C1A681E4B9A4234D104F54D7000F0E0
:20462000B3FB013018D1022204F54D70114600F087FB0222032104F54D7000F081FB04F5AC
:204640004D7000F08BFB013001D1FFF7D9FF114B0220C4F8A83214E0D4F85C33B4F87413C0
:20466000D4F87003C91A184400F0F6FAA4F83E0304F54D7000F072FB013001D1FFF7C0FF34
:20468000032010BD044BE3E7DC0E0020A80F002065766173000006062000000808B50E4B37
:2046A0001A680E4B9A4211D1022203210C4800F047FB0B4800F052FB01300AD1FFF7A0FF62
:2046C000084B094A0220C3F8A82208BD054B074AF8E70320F9E700BFDC0E002064616F6CDC
:2046E000DC120020A80F0020000006062000000808B50E4B1A680E4B9A4211D102220D4879
:20470000114600F01DFB0B4800F028FB01300AD1FFF776FF084B094A0220C3F8A82208BD4B
:20472000054B074AF8E70320F9E700BFDC0E002064616F6CDC120020A80F0020000006069C
:204740002000000808B5104B1A68104B9A4216D102220F48114600F0F3FA022203210C482E
:2047600000F0EEFA0A4800F0F9FA01300AD1FFF747FF084B084A0220C3F8A82208BD054B83
:20478000064AF8E70320F9E7DC0E002064616F6CDC120020A80F0020000006062000000824
:2047A00010B51C4B1C4C1A681C4B9A4230D104F54D7000F0DEFA013018D1022204F54D702D
:2047C000114600F0BDFA0222032104F54D7000F0B7FA04F54D7000F0C1FA013001D1FFF7E2
:2047E0000FFF0F4B0220C4F8A83210E0B4F86C13D4F8680300F030FAA4F83C0304F54D709C
:2048000000F0ACFA013001D1FFF7FAFE032010BD044BE7E7DC0E0020A80F00206576617374
:20482000000006062000000810B5244B244C1A68244B9A423FD104F54D7000F09AFA013058
:2048400015D102222048114600F07AFA022203211D4800F075FA1C4800F080FA013001D14E
:20486000FFF7CEFE194B0220C4F8A83222E004F54D7000F089FA0130E3D0B4F86C13D4F854
:20488000680300F0E9F9D4F85C33B4F87413A4F83C03D4F87003C91A184400F0DDF9A4F892
:2048A0003E0304F54D7000F059FA013001D1FFF7A7FE032010BD064BD5E700BFDC0E00205A
:2048C000A80F002065766173DC120020000006062000000870474FF0FF30704770477047C6
:2048E00070477047006800F099B9FFFF2DE9F74F00232B4E804630460C4686F8C130294B39
:20490000302240F8083B0A21FBF7DAFD3568E26A254B26491A6005F54770254A746000F0B0
:20492000B9F9244C244B224654F8481C28461B6805F52E7700F042F9A4F14801384600F0C7
:2049400094FFDFF87CA004F5A27905F11806F43405F5FC7B5AF8043B4A46CDE90043304680
:2049600039466B69783601F011F85E4509F1240904F11404EED16B693A4605F516700F497A
:2049800000F032FD3A4630460C4900F0C3FA41460348FFF7A7FF024803B0BDE8F08F00BFB2
:2049A000E00E0020A80F0020E0080020D7480100DD4801000C050020EC070020C404002098
:2049C000D008002043681A8D092A9FBF43F8221042680120138D8EBF002001331385704734
:2049E000F0B58DB004460E4617460021282268461D460BF023FCDDE91423CDE90423032344
:204A0000ADF81C30129B6946ADF81E30169B04F108000A93179BCDE9017606950B93FBF701
:204A200065FD0DB0F0BD73B5044689B2006800F0CEF894F8C12094F8C030002A45D013B3F1
:204A400004F1900194F8C230012B22D0022B28D0BBB9226882F851320D8A01F118038A687E
:204A6000206894F86060CDE9003500F5FC70D3B24968C2F30F224EB900F09EFA012384F8CB
:204A8000C23002B070BD04F16001DBE700F06CFAF4E7236893F85132023B012BF1D802230C
:204AA000EDE78B6A23B12268C96A92F8510298470023226882F8513294F8C02084F8C1305D
:204AC000002ADED084F8C030DBE723B1012384F8C1300023D3E704F1600104F10800FBF749
:204AE0000DFD0028F2D1CCE72DE9F843314C1546D4F8B8220746C2F31C0291420E4618D10F
:204B000094F8BB2252060AD4294694F8C42204F2BB202A44914207D1012284F8C5227A68C3
:204B2000002A42D1BDE8F88311F801CB00F801CFF0E7D4F8FC21C2F31C02914210D194F8A8
:204B400050226AB16A1E04F2FF11E81D12F801CF824201F801CFF9D1012284F80922DEE775
:204B6000D4F85C22C2F31C029642D8D112496A1EE81D12F801CF824201F801CFF9D101225B
:204B800084F86922CBE7A3B252F82380B8F1000F04D04B462A4631463846C04701347A687A
:204BA000A1B2108D8842EED8BCE700245FFA83F9F5E700BFA80F00200712002001600021AC
:204BC000C0E90423416000F5387000F05BB870B504460A460D4600F52E70012100F05CFEB3
:204BE000B4F8D032012B0BD9294604F5167000F02DFC294604F5FC70BDE8704000F004BA19
:204C00000BD104F1180604F5FC74304601222946783600F0E8FEA642F7D170BD38B504469C
:204C20000D4600F5167000F015FE294604F1180000F0F4FE294604F1900000F0EFFE294605
:204C400004F5847000F0EAFE294604F5C070BDE8384000F0E3BE704710B530B1034601445E
:204C60004FF6FF70064C8B4200D110BD13F8012B82EA102234F81220000280B25040F2E7F3
:204C8000E408002000B9FEE70023C0E9023303604360704700230161C0E901330370C360B4
:204CA000426170472DE9F0411E4690F9003005460F46904601205BB9287032464146384676
:204CC0002B699847044658B14FF0FF3000232B70BDE8F0813A5D18F804309A4206D1013409
:204CE000A642F7D10123013B58B2EFE70023FAE770B5024605880020A84209D31DD1536837
:204D000033F830204FF6FF738A4218BF184670BD431956685C1036F83460C3F34F038E4213
:204D200009D003D92CB1013B9DB2E5E7013398B2E2E72046E3E71846E9E74FF6FF70E6E764
:204D40000378022919BF23F00C0343EA820223F003031A4318BFD2B20270704710B50446F9
:204D60002246236BE16A606CFFF79CFF0128F7D010BD10B50446238F626BA169606CFFF77E
:204D800091FF0128F7D010BD10B50446A16A206AB4F84030E26B5B1A0A440144606CFFF7EF
:204DA00081FF0128F2D010BD054A00F10C032C3043F8042F834202F10102F9D1704700BFA7
:204DC000E80A002010B10B78072B00D9FEE700F8303F01EB8303994200D1704751F8042FD5
:204DE00040F8042FF7E7FFFF2DE9F84F4FF0000804460F460646012245464FF6FF79E37817
:204E000062F3C713E37094F83030434501DCBDE8F88F3846B18E96F836A096F837B0FFF707
:204E200067FF484504D12046BDE8F84FFFF7BCBF3A888242F7D97A6802EBC0029178514561
:204E4000F1D9516811EB0A11EDD00E4B186800239B4504DC002208F101080436CFE7CA88D9
:204E600005F1040C9A42D4BF02460A6805F10105EDB2C8BFD218082D44F82C20D3D801335B
:204E8000E6E700BFE40A002038B51546044638B1FFF798FF29462046BDE83840FFF7A4BF25
:204EA00038BDFFFF38B580230376082380F82030094B04461B68C16114300D469847002327
:204EC000A4F84430637484F84C304FF440732565A4F8583038BD00BFE00800200023A0F8D8
:204EE0004430437480F84C304FF440730165A0F858307047002310B59CB2A24200D810BDA1
:204F0000CC5CC4540133F7E7014B1B68184700BFE0080020012310B54FF4C06403704369DB
:204F200064F31C03436108234FF4B0640384436864F31C03436000234374436280F828303B
:204F4000B1F864404485896EC0E90F33C0E91132C0E91433C162038780F83A3080F84C30FA
:204F6000A0F8583010BDFFFF70B50125067D01F07F0161F306060675067980F83A30BDF816
:204F80001430049C61F306060671A0F8463080F859500287A288074B9A80E288DA802268BA
:204FA0001A60A268C3639A60102380F84C5080F8583070BD2C13002070B50125067D01F0BB
:204FC0007F0161F306060675067980F83A30BDF81430049C61F306060671A0F8463080F81F
:204FE00059500287A288074B9A80E288DA8022681A60A268C3639A60132380F84C5080F835
:20500000583070BD2C13002073B50378044623B9012384F8593002B070BD90F85830002B70
:20502000F9D0B0F8442062B11144B0F8462089B28A42A0F8441004D2AF49FFF74FFF0323FA
:20504000E7E7A16C628D888B904240F0A08118B1E06A0A6A1042DBD0627C7AB994F84C20C3
:20506000002AD5D0103B0025052B49D8DFE813F01F005900A500D500EC0050010022217AEA
:20508000A4F8442049090429ECD1237B62748DF80030637B84F858208DF80130A37B8DF880
:2050A0000230E37B8DF80330009B6365C7E7238FE16B63761B0AA37694F83A3084F8285098
:2050C000A584E376CA88042AE2841DD8C2F104039B0003F00C0343F023032376096804F1C4
:2050E0001C00FFF707FF04F11400FFF70DFF0123A4F84430002384F84C30112384F8583006
:2051000001230022627484E721232376C2F3072322776377C2F30743C2F30762A377E27749
:20512000E1E7237A5B09032B05D074492046FFF7B9FE0323E5E7637A218F8DF80030A37A82
:205140008DF80130BDF80020E37A914201D06C49ECE794F83A209A42F9D1E28C042A04D837
:20516000002384F858300223CBE7E36B04F119001968A38C07339A420FDCD5B22A46FFF737
:20518000B9FEE38CC5F10705A38494F8283043EA450343F00103DBB205E00722FFF7AAFE37
:2051A000A28494F828302376012304F11400A4F84430FFF7A9FE1223A0E7237A5A09012A8B
:2051C000B3D194F8282003F01003934201D04D49ACE783F01003E28C84F82830A38C9A42CF
:2051E000BED9E16BD81D09688242194404F119000CDCD21AD2B2FFF77DFEE38CC2F1070243
:20520000A38494F8283043EA4203C2E70722FFF771FEA38C1344A384C3E7238F84F82850DD
:2052200063761B0AA37694F83A30A584E376402304F114002376FFF767FE012384F84C5043
:20524000A4F84430142359E7227A5309022B7FF46CAF637A208F8DF80030A37A8DF8013000
:20526000BDF80010E37A88427FF471AF94F83A1099427FF46CAF02F00303032B16D1C2F3AE
:205280008102C2F1040292B2E36BE284D988914204D220461C49FFF721FE4AE7186804F14A
:2052A0000C01FFF727FEE38CA38459E7012B20D1227BE16B8DF80020627B8DF80120A27BA5
:2052C0008DF80220E27B8DF80320BDF80020E284C988914201D20C4928E70022A2846022C2
:2052E000A4F84430227604F11400FFF70DFE152304E706491AE700BF0000040523000A068E
:2053000043000406000003050500040510000706237A5D097FF409AF94F8281003F0100216
:205320008A427FF454AF82F0100284F82820E26BA18C1068E28CCE1DB242084403F0010361
:205340000EDC13B94FF00061F0E6521A92B204F10901FFF7CFFDE38C84F85850A38402E70D
:20536000002BEFD1072204F10901FFF7C3FDA38C04F114001344A38494F8283043F0600334
:205380002376FFF7C1FD0123A4F84430B8E6002A3FF462AE3CE600BF002310B59CB2A24286
:2053A00000D810BDCC5CC4540133F7E7014B1B68184700BFE008002010B5C36B0446D3E908
:2053C00002201168DA8820B9BDE810401868FFF7E3BFFFF7E1FFE36B9A88D20503D49968F5
:2053E000DA880968F0E710BD30B50124047091F85C40456904F5B06464F31C05082445618E
:20540000048491F85C40456804F5C06464F31C05002445600482446280F82840B1F85E5071
:20542000C0E90F44458504864363048780F83A40A0F84440B1F86030C0E91444A0F8463095
:20544000826480F84C40A0F8584030BD73B503780446002B00F0FC81B0F844307BB119441B
:20546000B0F8463089B28B42A0F8441007D2AA49FFF734FD032384F8593002B070BD637C3E
:205480005BB994F84C30002B40F0AF80012294F85830002B18BF1346EDE70023257AA4F8A2
:2054A00044306D09042D11D1227B63748DF80020627B84F858308DF80120A27B8DF802208B
:2054C000E27B8DF80320009A6265D3E794F85830002B40F08A806B1E012B04D98F49204663
:2054E000FFF7E0FCC6E7637A606B8DF80030A37A8DF80130BDF80010E37A218784F83A304D
:20550000FFF7F6FB4FF6FF739842208603D10023E3638349E3E7626B94F83A30118881427B
:20552000F5D9526802EBC00291789942EFD95168180101EB0313E363002BEAD0012D9A8839
:205540002BD1950701D47749C9E79A6802B313682364112384F8583094F84C30002B67D013
:205560000025E36B25659B685B68984704284FD12046FFF721FF002504F1140084F84C507B
:20558000A4F84450FFF712FF84F8585002228AE0DB68002BDCD10B58DAE7D107D3D514232C
:2055A00084F858300025637AE16B6376638984F82850A5846383CA8804F11406042AE284DC
:2055C00000F2F380C2F104039B0003F00C0343F043032376096804F11C00FFF7DDFE304634
:2055E000FFF7E4FEE38CA384CEE794F85830113B042B57D801A252F823F000BF595501005C
:20560000F3560100A5560100A5550100D35701000328B0D0022845D1216D84F84C50A4F8F1
:20562000445001B940492046FFF73CFC03223AE084F82830A384637A227A637663896383A1
:2056400002F00303032B31D1C2F38102C2F1040292B2E36BE284DB88934201D23349E2E7E9
:20566000206C04F10C01FFF797FEE38CA38460232376E36B9A6882B9D96831B19A88D205B8
:2056800003D4DA881868FFF787FE04F11400FFF78DFE002384F8583078E70123A4F8443092
:2056A00084F84C30012200236374F0E6012B1ED1227BE16B8DF80020627B8DF80120A27BB6
:2056C0008DF80220E27B8DF80320BDF80020E284C9889142C2D36022A4F84430227604F10B
:2056E0001400FFF763FE122384F85830DAE7104999E794F84C30002B7FF432AF237A5A09E5
:2057000001D00C498FE794F8281003F01002914214D0094987E700BF0000040501000405DB
:20572000110009060000010621000008050004051000070623000A0600000305A18CE28C18
:20574000206CCD1DAA42084403F0010310DC13B94FF0006167E7521A92B204F10901FFF759
:205760001BFEE38CA38494F8283043F020037FE7002BEDD1072204F10901FFF70DFEA38C99
:2057800004F114001344A38494F8283043F0200323760123A4F84430FFF708FE94F828309B
:2057A00083F0100384F828307CE741232376C2F3072322776377C2F30743C2F30762A377A6
:2057C0003046E277FFF7F2FD0123A4F8443015238AE7237A5A09032A93D194F8282003F0E0
:2057E00010039A4295D1E26BA38C1168E28CD81D8242194404F1140504F1190018DCD21ADF
:20580000D2B2FFF7C9FDE38CC2F10702A38494F82830284643EA420343F001032376FFF76C
:20582000C5FD94F8283083F0100384F8283030E70722FFF7B1FDA38C28461344A38494F8DD
:2058400028302376FFF7B2FD0123A4F84430A5E7012310E6037D01F07F0161F30603037512
:20586000037961F3060303717047032303734B680360002343730A8902824A894282B1F842
:205880005820828291F85A208361827583838377036280F82430704713B590F90310044618
:2058A0000029C3783ADB418B0A4492B29142018B38BF42834A1C92B2914238BF028313F0FA
:2058C00040032DD0428B038A9A421FD3838B828A01339BB29A4283830BD20122837F817DE3
:2058E0001344DBB2994238BF002382839A4083770262A38B20462371C3F307236371A37F94
:20590000A371114B1B6898470023A361638B628A93428CBF0023012384F8243002B010BDFE
:20592000427B002AF2D0027981798DF80020427981778DF80120BDF800208361828301226A
:205940008A4002624373E1E7E008002010B590F868300446022B0AD1436F043098470A4B42
:2059600020461B689847002384F8703010BD00F10C03C21C00F12C0153F8040F00788B42B4
:2059800002F8010FF8D1EAE7E0080020F8B50446DDE906570E4611461A46FFF775FA286841
:2059A000A065AB88A4F85C30EA88A4F85E202989A4F86010EB686366AB7A84F862302B7C47
:2059C0002060A4F86E2008200022022B84F86830A0816665A4F86C1084F87020676701D1E2
:2059E00007B9FEE7F8BD90F90330002B15DB4FF6FF71B0F85C308B4204D190F8703063B1AF
:205A0000FFF7A4BF4AB1426D918B994203D1416E126A1142F4D1002BEFD07047037861F305
:205A200006030370704710B5044618462368D3F8D04014B1029BA04708B16FF0150010BD1D
:205A400010B5044618462368D3F8CC4014B1029BA04708B16FF0150010BD08B50368D3F841
:205A6000C83013B10846984708B16FF0150008BD0020704738B51C4B4FF48062C3671B4B6B
:205A800000F17805C0F88030194B2946C0F88430184B8067C0F888304023C0E927231023AE
:205AA000C0F8A4300123C0E923331823C0F8B430D0F8C4300446C0F89830D0F8C030C0F86A
:205AC00094300D4B1860FCF7B3F958B129462046FDF7EAFC29462046FCF7AAF920460749BA
:205AE000FDF7B2FA002038BD275A0100415A01005B5A0100715A01003C13002003370200A6
:205B00002DE9F04F044600271E464FF04408154689B0129BC0E902260361016007753946FE
:205B2000C0F81C7204F13D0B28221530079304F1810A0AF083FB4246394658460AF07EFBA9
:205B400004F1C5094246394650460AF077FB4246394648460AF072FB04F209134246394664
:205B6000184603930AF06AFB04F24D1342463946184604930AF062FB04F291134246394688
:205B8000184605930AF05AFB04F2D51342463946184606930AF052FB079B2A46009358465A
:205BA00033461B490AF0B4FA23692A4600935046334618490AF0ACFA23692A4600934846A4
:205BC000334615490AF0A4FA23692A4600931349334603980AF09CFA23692A4600931049DF
:205BE000334604980AF094FA23692A4600930D49334605980AF08CFA23692A461293334673
:205C00000949069809B0BDE8F04F0AF081BA00BF08370200223702003D3702005237020066
:205C20007037020089370200A6370200006800F055BD014610B5044651F8C50B0122836833
:205C40005B6998472146BDE8104051F83D0B012283685B691847FFFF2DE9F34106463C2093
:205C60001D468846174609F01DFB1F4B044683604FF480734246C360394600F077FC012208
:205C80004FF47A712046656100F0D6FC4FF47A7000F057FE8022002114480AF0CFFA32461C
:205CA000134912480AF034FA4FF47A73324600932046104B0D4900F071FC054650B12046A5
:205CC00000F068FC204609F0F5FA0024204602B0BDE8F081314604F124000AF0F5FB84F8DA
:205CE0003450A563F2E700BFC013002040130020C4370200A13A020010B50446406978B15F
:205D000000F078FD01280BD194F83430C3B9606970B100F06FFD58B9012384F8343007E06B
:205D200094F83430012B04D0022B09D0002BEED010BDA36B002BFBD02046BDE810401847F9
:205D40000023EAE74FF47A7307B5044A00930449044B00F023FC03B05DF804FB0F38020087
:205D6000D0370200E23A02004FF47A7307B5044A00930449044B00F011FC03B05DF804FB8F
:205D80000F380200E3370200E23A02004FF47A7337B50A4A00930A490A4B044600F0FEFBA2
:205DA000054638B90849A06804F1180304F114020AF0CEF9284603B030BD00BF0F3802005C
:205DC000EE370200E23A0200F73702004FF47A7307B5044A00930449044B00F0DFFB03B068
:205DE0005DF804FB0F38020014380200E23A020037B50A4D04460093284613460A46084912
:205E00000AF086F94FF47A73294600932046054B054A00F0C3FB03B030BD00BFC1140020D0
:205E20001F380200E23A02000F3802004FF47A7337B50C4A00930C490C4B044600F0AEFB0E
:205E4000054660B90A4904F12C02A0680AF080F9082204F1330104F140000AF027FA2846DC
:205E600003B030BD0F38020040380200E23A02004A38020073B5044600F078FB294E0022AF
:205E80004FF4C871204600F0D7FB0F23337033785A1E32701BBB04252046FFF753FF18BB44
:205EA00004252046FFF760FF20BB04252046FFF78DFF28BB04252046FFF768FF30BB04252F
:205EC0002046FFF7B3FF38BB4FF47A7320460093154A164B164900F061FB02B070BD4FF40B
:205EE0007A7000F02EFDD2E7013DC8D0012000F028FDD1E7013DC2D0012000F022FDD0E769
:205F0000013DBCD0012000F01CFDCFE7013DB6D0012000F016FDCEE7013DB0D0012000F06B
:205F200010FDCDE7C01400200F380200E23A0200D537020073B542F21076184B184A19492E
:205F40000096044600F02AFB20B14FF0FF35284602B070BD2046114B114A1349009600F0BC
:205F60001DFB05460028F0D1A06810490AF01EFA04F12803019304F12403009304F11C02EC
:205F800004F120030A490AF0E3F82046034B044A0849009600F002FBD9E700BFE23A02004E
:205FA0000F3802005F3802006C380200783802007F3802009B38020073B50D4604461646F8
:205FC00000214FF400720F480AF038F92A464FF4FA6533460C490B480AF09AF820460B4BEE
:205FE0000B4A0C49009500F0D9FA40B92046074B094A0449009500F0D1FA02B070BD4FF0E0
:20600000FF30FAE7C1140020AA380200E23A02000F380200C1380200DF380200F7B5154615
:2060200007460C464FF4007200210F481E460AF005F995B18EB12B4622460C490A4800969D
:206040000AF066F84FF4FA6338460093084A094B054900F0A3FA03B0F0BD22460649024855
:206060000AF056F8EEE700BFC1140020F538020023390200E23A02000F3902004FF4FA63BA
:2060800007B5044A00930449044B00F087FA03B05DF804FB3B39020051390200E23A02002F
:2060A0004FF4FA6307B5044A00930449044B00F075FA03B05DF804FB603902007739020054
:2060C000E23A02002DE9F7430E46DDE90A891F4604460021154613484FF400720AF0AEF8CA
:2060E000CDE900674FF4FA664B4642460E490D480AF00EF820460D4B0D4A0A49009600F02D
:206100004DFA48B929462046084B0A4A0A9603B0BDE8F04300F042BA4FF0FF3003B0BDE8DE
:20612000F08300BFC114002088390200E23A0200A7390200A9390200F7B50E4617460C4DDB
:2061400004464FF40072002128460AF077F83B4632462846074909F0DBFF4FF4FA632946AF
:2061600000932046044B054A00F018FA03B0F0BDC1140020C0390200E23A0200D639020007
:2061800073B50E460B4D04464FF40072002128460AF054F832462846074909F0B9FF4FF42D
:2061A000FA63294600932046044B054A00F0F6F902B070BDC1140020EB390200E23A020085
:2061C000FE3902002DE9F743002401220DF1070105468DF8074000F04DFA012823D1214617
:2061E000EA68A8680AF02AF840F2D176DFF84880DFF84890D5E9021228462144121B00F098
:2062000039FAAF680444414638460AF0CFF820B1494638460AF0CAF848B9013E09D0012052
:2062200000F08FFBE6E7204603B0BDE8F0830220FAE74FF0FF30F7E71F390200133A0200EE
:206240002DE9F04F002585B0894617460DF10F01012204468DF80F5000F00CFA012864D1B0
:206260009DF90F302B2B60D12946E268A06809F0E5FF40F2D178DFF8D0A0DFF8D0B0D4E94E
:20628000021220462944521B00F0F4F9A6680544274930460AF08AF888B3514630460AF0D2
:2062A00085F800B3304623490AF080F8851C224928460AF07BF800241E4900F8024B0AF0A9
:2062C00075F8861C1A4930460AF070F83146047038460AF0F9F8294648460AF0F5F82046D6
:2062E00005B0BDE8F08F0190594630460AF05EF828B1019B30461A46104909F009FFA6681C
:206300000F4930460AF052F840B130460D490AF04DF818B139462046FFF754FFB8F10108C6
:2063200003D0012000F00DFBA9E74FF0FF30D7E71F3902002D3A0200303A02003C3A02000E
:20634000053B02004D3A0200243A0200333A020070B5A2B005460C4602A813490AF0B4F8E3
:2063600041F2883328460093104A114B02A900F015F90646A0B9A8680E490AF017F800F1C9
:206380000B0528460C490AF011F82946067020460AF09AF8204622B0BDE870400AF0A9B868
:2063A0004FF0FF3022B070BD8A3A0200033B02009C3A0200A73A02000D380200F7B50E4668
:2063C00017460C4D04464FF400720021284609F035FF3B4632462846074909F099FE4FF4C2
:2063E000FA63294600932046044B054A00F0D6F803B0F0BDC1140020B33A02009C3A020060
:206400000F38020073B50D464FF4007200210446104809F013FF28460AF06BF84FF4FA66C7
:2064200002463C230C490B4809F072FE20460B4B0B4A0849009600F0B1F840B92946204645
:20644000064B084A009600F0A9F802B070BD4FF0FF30FAE7C1140020C93A0200DD3A020031
:20646000A93A02000F38020073B50E460B4D04464FF400720021284609F0E0FE32462846CF
:20648000074909F045FE4FF4FA63294600932046044B054A00F082F802B070BDC11400208C
:2064A000173B0200DD3A0200013B0200F7B50E4617460C4D04464FF400720021284609F0F4
:2064C000BDFE3B4632462846074909F021FE4FF4FA63294600932046044B054A00F05EF846
:2064E00003B0F0BDC1140020283B0200DD3A0200403B020070B5A4B0802206460C4604A8E7
:20650000002109F09BFE154904A809F0DDFF4FF47A7330460093124A124B04A900F03EF824
:206520000546B8B92221B06809F090FE90B1231D029304F10803019304F10C0300930A4929
:20654000039404F1100304F1140209F001FE284624B070BD4FF0FF35F9E700BF4A3B020091
:20656000563B0200A13A0200593B0200C0E90012D0E9023232B93BB94FF40063C360044B76
:20658000836001E0002BFAD000230374704700BFC11600200023C0E9003370472DE9F04738
:2065A00004460D4691469A46237C8BB901232846237409F09EFF29460246606800F094F9E9
:2065C000054648B13421194B194A1A4803F01EFA012000F0B6F9E7E70146E268A06809F0CE
:2065E0002DFE2E46A846D4E902126068921B314400F095F958B1A76806444946384609F06D
:20660000D5FE70B95146384609F0D0FE40B9089B08F10108984503D8012000F092F9E2E7E7
:206620000125002323742846BDE8F0876D3B0200F04B0200AD3B020070B5044600680E46F4
:20664000036815469B685AB100219847304600F078F90121206803689B68BDE870401847C3
:2066600001219847304600F06CF92068294603689B68F2E7F8B504460D461646237C03F0D8
:20668000FF0743B90123324629466068237400F046F92774F8BD012000F053F9EEE780F865
:2066A0007410704790F874007047F8B5064678200F46154608F0F6FD002304460760866006
:2066C000C561C0E9033301220A212030F9F7F8FE012384F874302046F8BDFFFF0369092B34
:2066E00005D8034A42F823100369013303617047C41E0020F7B590F874300446013B00F1F7
:206700002006042B25D8DFE803F0420317345400C16983689D68D1E902230969A847A8B9CE
:20672000032384F87430012330460DF107018DF80730F9F7DBFE0CE08368D0E90512DB6903
:20674000984708B90623EFE7023002D1042384F87430002530460DF107018DF807501D4E66
:20676000F9F7CCFE9DF807702369AB4229D803B0F0BD02230DF1070130468DF80730F9F72C
:20678000B5FEA3682046DB6898470523DFE78268C3691568D3E90012A8470028D9D104237C
:2067A00030460DF107018DF80730F9F79FFE0223CDE783685B689847062384F8743005233D
:2067C000B2E756F8043BE36013B13946204698470135C9E7C41E002070B506460C200D46F0
:2067E000144608F05FFDC0E90065048170BD03689B6818470368DB68184703681B68184704
:2068000038B505460C200C4608F04CFDC0E9005438BD38B500230372036804461B689847F3
:206820000546237A0BB1284638BD012000F089F8F7E738B500230372036804465B68984705
:206840000546237A0BB1284638BD012000F079F8F7E738B50025057205680446AD68A8478D
:206860000546237A0BB1284638BD012000F069F8F7E70368DB681847012303727047012340
:2068800080F85C307047F8B50E461446002500F10807A9B28C4205F1010500D8F8BD38468D
:2068A0003144F9F734FEF4E770B5054668200E4608F0F8FC044668B146600122802140F829
:2068C000085BF9F7FDFD044B2366044B6366002384F85C30204670BD876801007F680100E5
:2068E000036E1847436E184770B50024036880F85C401B68054640F2D176984795F85C30B1
:2069000033B1B4F5FA6F4FF0FF3038BF002070BD0134B442F5D0012000F013F8EEE7F8B541
